:100000000C9434000C9449000C9449000C94490061
:100010000C9449000C9449000C9449000C9449003C
:100020000C9449000C9449000C9449000C9449002C
:100030000C9449000C9449000C9449000C9449001C
:100040000C9449000C9449000C9449000C9449000C
:100050000C9449000C9449000C9449000C944900FC
:100060000C9449000C94490011241FBECFEFD4E03A
:10007000DEBFCDBF11E0A0E0B1E0EAE6F1E002C0F2
:1000800005900D92AC35B107D9F70E944B000C9446
:10009000B3000C9400001092C50088E08093C40067
:1000A0008093C100E0E0F1E007C08091C00085FFCF
:1000B000FCCF9093C600319690819923B1F7EAE086
:1000C000F1E007C08091C00085FFFCCF9093C6008F
:1000D000319690819923B1F720E030E070E368E732
:1000E00050E24AE0922F8091C00085FFFCCF7093D0
:1000F000C6008091C00085FFFCCF6093C600E92F49
:10010000E295EF70F0E0E65BFE4FE0818091C00089
:1001100085FFFCCFE093C600E92FF0E0EF70F070B0
:10012000E65BFE4FE0818091C00085FFFCCFE0934D
:10013000C6008091C00085FFFCCF5093C600C90166
:100140008F7090700F9731F48091C00085FFFCCFC5
:100150004093C6002F5F3F4F81E02030380711F6F3
:0A01600080E090E00895F894FFCFCE
:10016A007869616F6C6162610A0041726475696ED7
:10017A006F204E616E6F2C2041546D656761313678
:10018A00382C203131353230302C204E38312C2069
:10019A0073657269616C207072696E742030783090
:1001AA0030202D20307866660A00303132333435FB
:0C01BA00363738394142434445460000C6
:00000001FF
